S010000044435F4D6F746F722E737265631D
S11300000C942A000C943C000C943C000C943C008E
S11300100C943C000C943C000C943C000C943C006C
S11300200C943C000C943C000C943C000C9478011F
S11300300C943C000C943C000C943C000C943C004C
S11300400C943C000C943C000C943C000C943C003C
S11300500C943C0011241FBECFE5D8E0DEBFCDBF19
S113006020E0A0E6B0E001C01D92AB36B207E1F794
S11300700E9454010C94D9010C94000041E063E007
S113008082E00E94720041E064E082E00E9472001B
S11300900E945F010895882319F0813061F008956A
S11300A041E063E082E00E94E30040E064E082E03B
S11300B00E94E300089540E063E082E00E94E300D0
S11300C041E064E082E00E94E3000895880F982FE5
S11300D0990F990F890F90E00E94640108950E947E
S11300E0740108954423B9F1413009F06BC08130A3
S11300F089F028F08230C9F0833011F108952AB3D1
S113010081E090E002C0880F991F6A95E2F7822B84
S11301108ABB089527B381E090E002C0880F991F3D
S11301206A95E2F7822B87BB089524B381E090E0BF
S113013002C0880F991F6A95E2F7822B84BB089549
S113014021B381E090E002C0880F991F6A95E2F71D
S1130150822B81BB0895813091F028F08230D9F050
S1130160833029F108952AB381E090E002C0880F1A
S1130170991F6A95E2F7809582238ABB089527B375
S113018081E090E002C0880F991F6A95E2F780959C
S1130190822387BB089524B381E090E002C0880FD6
S11301A0991F6A95E2F78095822384BB089521B351
S11301B081E090E002C0880F991F6A95E2F780956C
S11301C0822381BB08954423B9F1413009F06BC007
S11301D0813089F028F08230C9F0833011F108951C
S11301E02BB381E090E002C0880F991F6A95E2F773
S11301F0822B8BBB089528B381E090E002C0880F66
S1130200991F6A95E2F7822B88BB089525B381E094
S113021090E002C0880F991F6A95E2F7822B85BB94
S1130220089522B381E090E002C0880F991F6A9577
S1130230E2F7822B82BB0895813091F028F082305E
S1130240D9F0833029F108952BB381E090E002C006
S1130250880F991F6A95E2F7809582238BBB0895D6
S113026028B381E090E002C0880F991F6A95E2F7F5
S11302708095822388BB089525B381E090E002C075
S1130280880F991F6A95E2F78095822385BB0895AC
S113029022B381E090E002C0880F991F6A95E2F7CB
S11302A08095822382BB08950E943E0080E00E94D4
S11302B04B0088E00E9466000E946F00FFCFBB9A4B
S11302C083B7886683BF089520E030E0382F3695E1
S11302D0279536952795ABE7B4E10E94CA01969518
S11302E0879581508CBF089583B7816083BF08953B
S11302F01F920F920FB60F9211242F933F934F9397
S11303005F936F937F938F939F93AF93BF93EF9379
S1130310FF938091600090916100A0916200B09180
S113032063000196A11DB11D80936000909361004C
S1130330A0936200B09363004091660050916700FF
S1130340609168007091690084179507A607B70744
S113035081F480916A0082BF109260001092610063
S11303601092620010926300E0916400F0916500C5
S11303700995FF91EF91BF91AF919F918F917F91DB
S11303806F915F914F913F912F910F900FBE0F90FE
S11303901F901895A29FB001B39FC001A39F700D39
S11303A0811D1124911DB29F700D811D1124911D79
S10903B00895F894FFCF4C
S9030000FC
